{"abi":[{"type":"constructor","inputs":[],"stateMutability":"nonpayable"},{"type":"receive","stateMutability":"payable"},{"type":"function","name":"aaveFlashArb","inputs":[{"name":"pool","type":"address","internalType":"address"},{"name":"asset","type":"address","internalType":"address"},{"name":"amount","type":"uint256","internalType":"uint256"},{"name":"params","type":"bytes","internalType":"bytes"}],"outputs":[],"stateMutability":"nonpayable"},{"type":"function","name":"executeOperation","inputs":[{"name":"asset","type":"address","internalType":"address"},{"name":"amount","type":"uint256","internalType":"uint256"},{"name":"premium","type":"uint256","internalType":"uint256"},{"name":"","type":"address","internalType":"address"},{"name":"params","type":"bytes","internalType":"bytes"}],"outputs":[{"name":"","type":"bool","internalType":"bool"}],"stateMutability":"nonpayable"},{"type":"function","name":"owner","inputs":[],"outputs":[{"name":"","type":"address","internalType":"address"}],"stateMutability":"view"},{"type":"function","name":"pancakeCall","inputs":[{"name":"","type":"address","internalType":"address"},{"name":"amount0","type":"uint256","internalType":"uint256"},{"name":"amount1","type":"uint256","internalType":"uint256"},{"name":"data","type":"bytes","internalType":"bytes"}],"outputs":[],"stateMutability":"nonpayable"},{"type":"function","name":"transferOwnership","inputs":[{"name":"newOwner","type":"address","internalType":"address"}],"outputs":[],"stateMutability":"nonpayable"},{"type":"function","name":"uniswapV2Call","inputs":[{"name":"","type":"address","internalType":"address"},{"name":"amount0","type":"uint256","internalType":"uint256"},{"name":"amount1","type":"uint256","internalType":"uint256"},{"name":"data","type":"bytes","internalType":"bytes"}],"outputs":[],"stateMutability":"nonpayable"},{"type":"function","name":"v2FlashArb","inputs":[{"name":"pair","type":"address","internalType":"address"},{"name":"assetToBorrow","type":"address","internalType":"address"},{"name":"amount","type":"uint256","internalType":"uint256"},{"name":"params","type":"bytes","internalType":"bytes"}],"outputs":[],"stateMutability":"nonpayable"},{"type":"function","name":"withdraw","inputs":[{"name":"token","type":"address","internalType":"address"},{"name":"to","type":"address","internalType":"address"},{"name":"amount","type":"uint256","internalType":"uint256"}],"outputs":[],"stateMutability":"nonpayable"},{"type":"event","name":"ArbitrageExecuted","inputs":[{"name":"initiator","type":"address","indexed":true,"internalType":"address"},{"name":"profitToken","type":"address","indexed":true,"internalType":"address"},{"name":"grossProfit","type":"uint256","indexed":false,"internalType":"uint256"},{"name":"netProfit","type":"uint256","indexed":false,"internalType":"uint256"}],"anonymous":false},{"type":"event","name":"OwnershipTransferred","inputs":[{"name":"oldOwner","type":"address","indexed":true,"internalType":"address"},{"name":"newOwner","type":"address","indexed":true,"internalType":"address"}],"anonymous":false},{"type":"event","name":"Withdrawn","inputs":[{"name":"token","type":"address","indexed":true,"internalType":"address"},{"name":"to","type":"address","indexed":true,"internalType":"address"},{"name":"amount","type":"uint256","indexed":false,"internalType":"uint256"}],"anonymous":false},{"type":"error","name":"ReentrancyGuardReentrantCall","inputs":[]},{"type":"error","name":"SafeERC20FailedOperation","inputs":[{"name":"token","type":"address","internalType":"address"}]}],"bytecode":{"object":"0x6080604052348015600e575f5ffd5b5060015f819055503360015f6101000a81548173ffffffffffffffffffffffffffffffffffffffff021916908373ffffffffffffffffffffffffffffffffffffffff160217905550612e6a806100635f395ff3fe60806040526004361061007e575f3560e01c80638da5cb5b1161004d5780638da5cb5b1461013d578063d4a449e814610167578063d9caed121461018f578063f2fde38b146101b757610085565b806310d1e85c14610089578063138368b3146100b15780631b11d0ff146100d9578063848008121461011557610085565b3661008557005b5f5ffd5b348015610094575f5ffd5b506100af60048036038101906100aa9190611b54565b6101df565b005b3480156100bc575f5ffd5b506100d760048036038101906100d29190611bd8565b6101f2565b005b3480156100e4575f5ffd5b506100ff60048036038101906100fa9190611c5c565b610308565b60405161010c9190611d0c565b60405180910390f35b348015610120575f5ffd5b5061013b60048036038101906101369190611b54565b6106db565b005b348015610148575f5ffd5b506101516106ee565b60405161015e9190611d34565b60405180910390f35b348015610172575f5ffd5b5061018d60048036038101906101889190611bd8565b610713565b005b34801561019a575f5ffd5b506101b560048036038101906101b09190611d4d565b610a30565b005b3480156101c2575f5ffd5b506101dd60048036038101906101d89190611d9d565b610c36565b005b6101eb84848484610df1565b5050505050565b60015f9054906101000a900473ffffffffffffffffffffffffffffffffffffffff1673ffffffffffffffffffffffffffffffffffffffff163373ffffffffffffffffffffffffffffffffffffffff1614610281576040517f08c379a000000000000000000000000000000000000000000000000000000000815260040161027890611e22565b60405180910390fd5b6102896112ed565b8473ffffffffffffffffffffffffffffffffffffffff166342b0b77c30868686865f6040518763ffffffff1660e01b81526004016102cc96959493929190611ef8565b5f604051808303815f87803b1580156102e3575f5ffd5b505af11580156102f5573d5f5f3e3d5ffd5b50505050610301611331565b5050505050565b5f5f83838101906103199190612215565b90505f81610100015173ffffffffffffffffffffffffffffffffffffffff166370a08231306040518263ffffffff1660e01b815260040161035a9190611d34565b602060405180830381865afa158015610375573d5f5f3e3d5ffd5b505050506040513d601f19601f820116820180604052508101906103999190612270565b90506103b7825f0151836020015184604001518b866060015161133a565b5f6103ca83608001518460c00151611622565b90506103e983608001518460a001518560c00151848760e0015161133a565b5f83610100015173ffffffffffffffffffffffffffffffffffffffff166370a08231306040518263ffffffff1660e01b81526004016104289190611d34565b602060405180830381865afa158015610443573d5f5f3e3d5ffd5b505050506040513d601f19601f820116820180604052508101906104679190612270565b90508281116104ab576040517f08c379a00000000000000000000000000000000000000000000000000000000081526004016104a2906122e5565b60405180910390fd5b5f83826104b89190612330565b90505f8a8c6104c79190612363565b90505f8d9050818173ffffffffffffffffffffffffffffffffffffffff166370a08231306040518263ffffffff1660e01b81526004016105079190611d34565b602060405180830381865afa158015610522573d5f5f3e3d5ffd5b505050506040513d601f19601f820116820180604052508101906105469190612270565b1015610587576040517f08c379a000000000000000000000000000000000000000000000000000000000815260040161057e906123e0565b60405180910390fd5b6105b233838373ffffffffffffffffffffffffffffffffffffffff166117c99092919063ffffffff16565b5f8e73ffffffffffffffffffffffffffffffffffffffff1688610100015173ffffffffffffffffffffffffffffffffffffffff160361060d578c8410156105f9575f610606565b8c846106059190612330565b5b9050610611565b8390505b876101200151811015610659576040517f08c379a000000000000000000000000000000000000000000000000000000000815260040161065090612448565b60405180910390fd5b87610100015173ffffffffffffffffffffffffffffffffffffffff163273ffffffffffffffffffffffffffffffffffffffff167f18be1daca870ce76ea02f4cefe3c78f1a21c7d42693c068e2d0bbf060f53ab5386846040516106bd929190612466565b60405180910390a36001985050505050505050509695505050505050565b6106e784848484610df1565b5050505050565b60015f9054906101000a900473ffffffffffffffffffffffffffffffffffffffff1681565b60015f9054906101000a900473ffffffffffffffffffffffffffffffffffffffff1673ffffffffffffffffffffffffffffffffffffffff163373ffffffffffffffffffffffffffffffffffffffff16146107a2576040517f08c379a000000000000000000000000000000000000000000000000000000000815260040161079990611e22565b60405180910390fd5b6107aa6112ed565b5f8590505f8173ffffffffffffffffffffffffffffffffffffffff16630dfe16816040518163ffffffff1660e01b8152600401602060405180830381865afa1580156107f8573d5f5f3e3d5ffd5b505050506040513d601f19601f8201168201806040525081019061081c91906124a1565b90505f8273ffffffffffffffffffffffffffffffffffffffff1663d21220a76040518163ffffffff1660e01b8152600401602060405180830381865afa158015610868573d5f5f3e3d5ffd5b505050506040513d601f19601f8201168201806040525081019061088c91906124a1565b90508173ffffffffffffffffffffffffffffffffffffffff168773ffffffffffffffffffffffffffffffffffffffff1614806108f357508073ffffffffffffffffffffffffffffffffffffffff168773ffffffffffffffffffffffffffffffffffffffff16145b610932576040517f08c379a000000000000000000000000000000000000000000000000000000000815260040161092990612516565b60405180910390fd5b5f8273ffffffffffffffffffffffffffffffffffffffff168873ffffffffffffffffffffffffffffffffffffffff161461096c575f61096e565b865b90505f8273ffffffffffffffffffffffffffffffffffffffff168973ffffffffffffffffffffffffffffffffffffffff16146109aa575f6109ac565b875b90508473ffffffffffffffffffffffffffffffffffffffff1663022c0d9f8383308b8b6040518663ffffffff1660e01b81526004016109ef959493929190612534565b5f604051808303815f87803b158015610a06575f5ffd5b505af1158015610a18573d5f5f3e3d5ffd5b505050505050505050610a29611331565b5050505050565b60015f9054906101000a900473ffffffffffffffffffffffffffffffffffffffff1673ffffffffffffffffffffffffffffffffffffffff163373ffffffffffffffffffffffffffffffffffffffff1614610abf576040517f08c379a0000000000000000000000000000000000000000000000000000000008152600401610ab690611e22565b60405180910390fd5b5f73ffffffffffffffffffffffffffffffffffffffff168373ffffffffffffffffffffffffffffffffffffffff1603610ba0575f8273ffffffffffffffffffffffffffffffffffffffff1682604051610b17906125ad565b5f6040518083038185875af1925050503d805f8114610b51576040519150601f19603f3d011682016040523d82523d5f602084013e610b56565b606091505b5050905080610b9a576040517f08c379a0000000000000000000000000000000000000000000000000000000008152600401610b919061260b565b60405180910390fd5b50610bcc565b610bcb82828573ffffffffffffffffffffffffffffffffffffffff1661187b9092919063ffffffff16565b5b8173ffffffffffffffffffffffffffffffffffffffff168373ffffffffffffffffffffffffffffffffffffffff167fd1c19fbcd4551a5edfb66d43d2e337c04837afda3482b42bdf569a8fccdae5fb83604051610c299190612629565b60405180910390a3505050565b60015f9054906101000a900473ffffffffffffffffffffffffffffffffffffffff1673ffffffffffffffffffffffffffffffffffffffff163373ffffffffffffffffffffffffffffffffffffffff1614610cc5576040517f08c379a0000000000000000000000000000000000000000000000000000000008152600401610cbc90611e22565b60405180910390fd5b5f73ffffffffffffffffffffffffffffffffffffffff168173ffffffffffffffffffffffffffffffffffffffff1603610d33576040517f08c379a0000000000000000000000000000000000000000000000000000000008152600401610d2a9061268c565b60405180910390fd5b8073ffffffffffffffffffffffffffffffffffffffff1660015f9054906101000a900473ffffffffffffffffffffffffffffffffffffffff1673ffffffffffffffffffffffffffffffffffffffff167f8be0079c531659141344cd1fd0a4f28419497f9722a3daafe3b4186f6b6457e060405160405180910390a38060015f6101000a81548173ffffffffffffffffffffffffffffffffffffffff021916908373ffffffffffffffffffffffffffffffffffffffff16021790555050565b610df96112ed565b5f3390505f8190505f8173ffffffffffffffffffffffffffffffffffffffff16630dfe16816040518163ffffffff1660e01b8152600401602060405180830381865afa158015610e4b573d5f5f3e3d5ffd5b505050506040513d601f19601f82011682018060405250810190610e6f91906124a1565b90505f8273ffffffffffffffffffffffffffffffffffffffff1663d21220a76040518163ffffffff1660e01b8152600401602060405180830381865afa158015610ebb573d5f5f3e3d5ffd5b505050506040513d601f19601f82011682018060405250810190610edf91906124a1565b90505f5f8911610eef5787610ef1565b885b90505f5f8a11610f015782610f03565b835b90505f8888810190610f159190612215565b90505f73ffffffffffffffffffffffffffffffffffffffff1681610100015173ffffffffffffffffffffffffffffffffffffffff1603610f8a576040517f08c379a0000000000000000000000000000000000000000000000000000000008152600401610f81906126f4565b60405180910390fd5b5f81610100015173ffffffffffffffffffffffffffffffffffffffff166370a08231306040518263ffffffff1660e01b8152600401610fc99190611d34565b602060405180830381865afa158015610fe4573d5f5f3e3d5ffd5b505050506040513d601f19601f820116820180604052508101906110089190612270565b9050611026825f01518360200151846040015187866060015161133a565b5f61103983608001518460c00151611622565b905061105883608001518460a001518560c00151848760e0015161133a565b5f61271090505f84610140015190505f8161ffff1611801561107d5750818161ffff16105b6110bc576040517f08c379a00000000000000000000000000000000000000000000000000000000081526004016110b39061275c565b60405180910390fd5b5f8161ffff16836110cd9190612330565b83896110d9919061277a565b6110e391906127e8565b90505f8261ffff16846110f69190612330565b848a611102919061277a565b61110c9190612818565b146111215760018161111e9190612363565b90505b61114c8c828973ffffffffffffffffffffffffffffffffffffffff1661187b9092919063ffffffff16565b5f86610100015173ffffffffffffffffffffffffffffffffffffffff166370a08231306040518263ffffffff1660e01b815260040161118b9190611d34565b602060405180830381865afa1580156111a6573d5f5f3e3d5ffd5b505050506040513d601f19601f820116820180604052508101906111ca9190612270565b905085811161120e576040517f08c379a0000000000000000000000000000000000000000000000000000000008152600401611205906122e5565b60405180910390fd5b5f868261121b9190612330565b9050876101200151811015611265576040517f08c379a000000000000000000000000000000000000000000000000000000000815260040161125c90612448565b60405180910390fd5b87610100015173ffffffffffffffffffffffffffffffffffffffff163273ffffffffffffffffffffffffffffffffffffffff167f18be1daca870ce76ea02f4cefe3c78f1a21c7d42693c068e2d0bbf060f53ab5383846040516112c9929190612466565b60405180910390a350505050505050505050505050506112e7611331565b50505050565b60025f5403611328576040517f3ee5aeb500000000000000000000000000000000000000000000000000000000815260040160405180910390fd5b60025f81905550565b60015f81905550565b5f73ffffffffffffffffffffffffffffffffffffffff168473ffffffffffffffffffffffffffffffffffffffff16036113a8576040517f08c379a000000000000000000000000000000000000000000000000000000000815260040161139f90612892565b60405180910390fd5b5f82116113ea576040517f08c379a00000000000000000000000000000000000000000000000000000000081526004016113e1906128fa565b60405180910390fd5b60028560ff16036114e1575f8380602001905181019061140a91906129d8565b90505f815f815181106114205761141f612a1f565b5b6020026020010151905061145586858373ffffffffffffffffffffffffffffffffffffffff166117c99092919063ffffffff16565b8573ffffffffffffffffffffffffffffffffffffffff166338ed173985858530426040518663ffffffff1660e01b8152600401611496959493929190612b03565b5f604051808303815f875af11580156114b1573d5f5f3e3d5ffd5b505050506040513d5f823e3d601f19601f820116820180604052508101906114d99190612c1b565b50505061161b565b60038560ff16036115df575f6114f6846118ce565b905061152385848373ffffffffffffffffffffffffffffffffffffffff166117c99092919063ffffffff16565b8473ffffffffffffffffffffffffffffffffffffffff1663c04b8d596040518060a001604052808781526020013073ffffffffffffffffffffffffffffffffffffffff168152602001428152602001868152602001858152506040518263ffffffff1660e01b81526004016115989190612d44565b6020604051808303815f875af11580156115b4573d5f5f3e3d5ffd5b505050506040513d601f19601f820116820180604052508101906115d89190612270565b505061161a565b6040517f08c379a000000000000000000000000000000000000000000000000000000000815260040161161190612dae565b60405180910390fd5b5b5050505050565b5f60028360ff16036116f1575f8280602001905181019061164391906129d8565b90505f81600183516116559190612330565b8151811061166657611665612a1f565b5b602002602001015190508073ffffffffffffffffffffffffffffffffffffffff166370a08231306040518263ffffffff1660e01b81526004016116a99190611d34565b602060405180830381865afa1580156116c4573d5f5f3e3d5ffd5b505050506040513d601f19601f820116820180604052508101906116e89190612270565b925050506117c3565b60038360ff1603611788575f61170683611923565b90508073ffffffffffffffffffffffffffffffffffffffff166370a08231306040518263ffffffff1660e01b81526004016117419190611d34565b602060405180830381865afa15801561175c573d5f5f3e3d5ffd5b505050506040513d601f19601f820116820180604052508101906117809190612270565b9150506117c3565b6040517f08c379a00000000000000000000000000000000000000000000000000000000081526004016117ba90612dae565b60405180910390fd5b92915050565b6117d58383835f611991565b611876576117e683835f6001611991565b61182757826040517f5274afe700000000000000000000000000000000000000000000000000000000815260040161181e9190611d34565b60405180910390fd5b6118348383836001611991565b61187557826040517f5274afe700000000000000000000000000000000000000000000000000000000815260040161186c9190611d34565b60405180910390fd5b5b505050565b61188883838360016119f3565b6118c957826040517f5274afe70000000000000000000000000000000000000000000000000000000081526004016118c09190611d34565b60405180910390fd5b505050565b5f602b82511015611914576040517f08c379a000000000000000000000000000000000000000000000000000000000815260040161190b90612e16565b60405180910390fd5b602082015160601c9050919050565b5f602b82511015611969576040517f08c379a000000000000000000000000000000000000000000000000000000000815260040161196090612e16565b60405180910390fd5b5f825190505f60148261197c9190612330565b90508060200184015160601c92505050919050565b5f5f63095ea7b360e01b9050604051815f525f1960601c86166004528460245260205f60445f5f8b5af1925060015f511483166119e55783831516156119d9573d5f823e3d81fd5b5f873b113d1516831692505b806040525050949350505050565b5f5f63a9059cbb60e01b9050604051815f525f1960601c86166004528460245260205f60445f5f8b5af1925060015f51148316611a47578383151615611a3b573d5f823e3d81fd5b5f873b113d1516831692505b806040525050949350505050565b5f604051905090565b5f5ffd5b5f5ffd5b5f73ffffffffffffffffffffffffffffffffffffffff82169050919050565b5f611a8f82611a66565b9050919050565b611a9f81611a85565b8114611aa9575f5ffd5b50565b5f81359050611aba81611a96565b92915050565b5f819050919050565b611ad281611ac0565b8114611adc575f5ffd5b50565b5f81359050611aed81611ac9565b92915050565b5f5ffd5b5f5ffd5b5f5ffd5b5f5f83601f840112611b1457611b13611af3565b5b8235905067ffffffffffffffff811115611b3157611b30611af7565b5b602083019150836001820283011115611b4d57611b4c611afb565b5b9250929050565b5f5f5f5f5f60808688031215611b6d57611b6c611a5e565b5b5f611b7a88828901611aac565b9550506020611b8b88828901611adf565b9450506040611b9c88828901611adf565b935050606086013567ffffffffffffffff811115611bbd57611bbc611a62565b5b611bc988828901611aff565b92509250509295509295909350565b5f5f5f5f5f60808688031215611bf157611bf0611a5e565b5b5f611bfe88828901611aac565b9550506020611c0f88828901611aac565b9450506040611c2088828901611adf565b935050606086013567ffffffffffffffff811115611c4157611c40611a62565b5b611c4d88828901611aff565b92509250509295509295909350565b5f5f5f5f5f5f60a08789031215611c7657611c75611a5e565b5b5f611c8389828a01611aac565b9650506020611c9489828a01611adf565b9550506040611ca589828a01611adf565b9450506060611cb689828a01611aac565b935050608087013567ffffffffffffffff811115611cd757611cd6611a62565b5b611ce389828a01611aff565b92509250509295509295509295565b5f8115159050919050565b611d0681611cf2565b82525050565b5f602082019050611d1f5f830184611cfd565b92915050565b611d2e81611a85565b82525050565b5f602082019050611d475f830184611d25565b92915050565b5f5f5f60608486031215611d6457611d63611a5e565b5b5f611d7186828701611aac565b9350506020611d8286828701611aac565b9250506040611d9386828701611adf565b9150509250925092565b5f60208284031215611db257611db1611a5e565b5b5f611dbf84828501611aac565b91505092915050565b5f82825260208201905092915050565b7f4e6f74206f776e657200000000000000000000000000000000000000000000005f82015250565b5f611e0c600983611dc8565b9150611e1782611dd8565b602082019050919050565b5f6020820190508181035f830152611e3981611e00565b9050919050565b611e4981611ac0565b82525050565b5f82825260208201905092915050565b828183375f83830152505050565b5f601f19601f8301169050919050565b5f611e888385611e4f565b9350611e95838584611e5f565b611e9e83611e6d565b840190509392505050565b5f819050919050565b5f61ffff82169050919050565b5f819050919050565b5f611ee2611edd611ed884611ea9565b611ebf565b611eb2565b9050919050565b611ef281611ec8565b82525050565b5f60a082019050611f0b5f830189611d25565b611f186020830188611d25565b611f256040830187611e40565b8181036060830152611f38818587611e7d565b9050611f476080830184611ee9565b979650505050505050565b5f5ffd5b7f4e487b71000000000000000000000000000000000000000000000000000000005f52604160045260245ffd5b611f8c82611e6d565b810181811067ffffffffffffffff82111715611fab57611faa611f56565b5b80604052505050565b5f611fbd611a55565b9050611fc98282611f83565b919050565b5f5ffd5b5f60ff82169050919050565b611fe781611fd2565b8114611ff1575f5ffd5b50565b5f8135905061200281611fde565b92915050565b5f5ffd5b5f67ffffffffffffffff82111561202657612025611f56565b5b61202f82611e6d565b9050602081019050919050565b5f61204e6120498461200c565b611fb4565b90508281526020810184848401111561206a57612069612008565b5b612075848285611e5f565b509392505050565b5f82601f83011261209157612090611af3565b5b81356120a184826020860161203c565b91505092915050565b6120b381611eb2565b81146120bd575f5ffd5b50565b5f813590506120ce816120aa565b92915050565b5f61016082840312156120ea576120e9611f52565b5b6120f5610160611fb4565b90505f61210484828501611ff4565b5f83015250602061211784828501611aac565b602083015250604082013567ffffffffffffffff81111561213b5761213a611fce565b5b6121478482850161207d565b604083015250606061215b84828501611adf565b606083015250608061216f84828501611ff4565b60808301525060a061218384828501611aac565b60a08301525060c082013567ffffffffffffffff8111156121a7576121a6611fce565b5b6121b38482850161207d565b60c08301525060e06121c784828501611adf565b60e0830152506101006121dc84828501611aac565b610100830152506101206121f284828501611adf565b61012083015250610140612208848285016120c0565b6101408301525092915050565b5f6020828403121561222a57612229611a5e565b5b5f82013567ffffffffffffffff81111561224757612246611a62565b5b612253848285016120d4565b91505092915050565b5f8151905061226a81611ac9565b92915050565b5f6020828403121561228557612284611a5e565b5b5f6122928482850161225c565b91505092915050565b7f6e6f206761696e000000000000000000000000000000000000000000000000005f82015250565b5f6122cf600783611dc8565b91506122da8261229b565b602082019050919050565b5f6020820190508181035f8301526122fc816122c3565b9050919050565b7f4e487b71000000000000000000000000000000000000000000000000000000005f52601160045260245ffd5b5f61233a82611ac0565b915061234583611ac0565b925082820390508181111561235d5761235c612303565b5b92915050565b5f61236d82611ac0565b915061237883611ac0565b92508282019050808211156123905761238f612303565b5b92915050565b7f696e73756666696369656e7420746f20726570617900000000000000000000005f82015250565b5f6123ca601583611dc8565b91506123d582612396565b602082019050919050565b5f6020820190508181035f8301526123f7816123be565b9050919050565b7f6d696e50726f666974206e6f74206d65740000000000000000000000000000005f82015250565b5f612432601183611dc8565b915061243d826123fe565b602082019050919050565b5f6020820190508181035f83015261245f81612426565b9050919050565b5f6040820190506124795f830185611e40565b6124866020830184611e40565b9392505050565b5f8151905061249b81611a96565b92915050565b5f602082840312156124b6576124b5611a5e565b5b5f6124c38482850161248d565b91505092915050565b7f6173736574206e6f7420696e20706169720000000000000000000000000000005f82015250565b5f612500601183611dc8565b915061250b826124cc565b602082019050919050565b5f6020820190508181035f83015261252d816124f4565b9050919050565b5f6080820190506125475f830188611e40565b6125546020830187611e40565b6125616040830186611d25565b8181036060830152612574818486611e7d565b90509695505050505050565b5f81905092915050565b50565b5f6125985f83612580565b91506125a38261258a565b5f82019050919050565b5f6125b78261258d565b9150819050919050565b7f6e6174697665207472616e73666572206661696c6564000000000000000000005f82015250565b5f6125f5601683611dc8565b9150612600826125c1565b602082019050919050565b5f6020820190508181035f830152612622816125e9565b9050919050565b5f60208201905061263c5f830184611e40565b92915050565b7f7a65726f206f776e6572000000000000000000000000000000000000000000005f82015250565b5f612676600a83611dc8565b915061268182612642565b602082019050919050565b5f6020820190508181035f8301526126a38161266a565b9050919050565b7f62616420706172616d73000000000000000000000000000000000000000000005f82015250565b5f6126de600a83611dc8565b91506126e9826126aa565b602082019050919050565b5f6020820190508181035f83015261270b816126d2565b9050919050565b7f696e76616c6964206665652062697073000000000000000000000000000000005f82015250565b5f612746601083611dc8565b915061275182612712565b602082019050919050565b5f6020820190508181035f8301526127738161273a565b9050919050565b5f61278482611ac0565b915061278f83611ac0565b925082820261279d81611ac0565b915082820484148315176127b4576127b3612303565b5b5092915050565b7f4e487b71000000000000000000000000000000000000000000000000000000005f52601260045260245ffd5b5f6127f282611ac0565b91506127fd83611ac0565b92508261280d5761280c6127bb565b5b828204905092915050565b5f61282282611ac0565b915061282d83611ac0565b92508261283d5761283c6127bb565b5b828206905092915050565b7f726f757465723d300000000000000000000000000000000000000000000000005f82015250565b5f61287c600883611dc8565b915061288782612848565b602082019050919050565b5f6020820190508181035f8301526128a981612870565b9050919050565b7f616d6f756e74496e3d30000000000000000000000000000000000000000000005f82015250565b5f6128e4600a83611dc8565b91506128ef826128b0565b602082019050919050565b5f6020820190508181035f830152612911816128d8565b9050919050565b5f67ffffffffffffffff82111561293257612931611f56565b5b602082029050602081019050919050565b5f61295561295084612918565b611fb4565b9050808382526020820190506020840283018581111561297857612977611afb565b5b835b818110156129a1578061298d888261248d565b84526020840193505060208101905061297a565b5050509392505050565b5f82601f8301126129bf576129be611af3565b5b81516129cf848260208601612943565b91505092915050565b5f602082840312156129ed576129ec611a5e565b5b5f82015167ffffffffffffffff811115612a0a57612a09611a62565b5b612a16848285016129ab565b91505092915050565b7f4e487b71000000000000000000000000000000000000000000000000000000005f52603260045260245ffd5b5f81519050919050565b5f82825260208201905092915050565b5f819050602082019050919050565b612a7e81611a85565b82525050565b5f612a8f8383612a75565b60208301905092915050565b5f602082019050919050565b5f612ab182612a4c565b612abb8185612a56565b9350612ac683612a66565b805f5b83811015612af6578151612add8882612a84565b9750612ae883612a9b565b925050600181019050612ac9565b5085935050505092915050565b5f60a082019050612b165f830188611e40565b612b236020830187611e40565b8181036040830152612b358186612aa7565b9050612b446060830185611d25565b612b516080830184611e40565b9695505050505050565b5f67ffffffffffffffff821115612b7557612b74611f56565b5b602082029050602081019050919050565b5f612b98612b9384612b5b565b611fb4565b90508083825260208201905060208402830185811115612bbb57612bba611afb565b5b835b81811015612be45780612bd0888261225c565b845260208401935050602081019050612bbd565b5050509392505050565b5f82601f830112612c0257612c01611af3565b5b8151612c12848260208601612b86565b91505092915050565b5f60208284031215612c3057612c2f611a5e565b5b5f82015167ffffffffffffffff811115612c4d57612c4c611a62565b5b612c5984828501612bee565b91505092915050565b5f81519050919050565b5f82825260208201905092915050565b8281835e5f83830152505050565b5f612c9482612c62565b612c9e8185612c6c565b9350612cae818560208601612c7c565b612cb781611e6d565b840191505092915050565b612ccb81611ac0565b82525050565b5f60a083015f8301518482035f860152612ceb8282612c8a565b9150506020830151612d006020860182612a75565b506040830151612d136040860182612cc2565b506060830151612d266060860182612cc2565b506080830151612d396080860182612cc2565b508091505092915050565b5f6020820190508181035f830152612d5c8184612cd1565b905092915050565b7f62616420646578547970650000000000000000000000000000000000000000005f82015250565b5f612d98600b83611dc8565b9150612da382612d64565b602082019050919050565b5f6020820190508181035f830152612dc581612d8c565b9050919050565b7f62616420763320706174680000000000000000000000000000000000000000005f82015250565b5f612e00600b83611dc8565b9150612e0b82612dcc565b602082019050919050565b5f6020820190508181035f830152612e2d81612df4565b905091905056fea26469706673582212206b2d54c5343442a58ac30f6409821f3f3a06098c8811a139a48b854c71cae8a164736f6c634300081e0033","linkReferences":{}},"methodIdentifiers":{"aaveFlashArb(address,address,uint256,bytes)":"138368b3","executeOperation(address,uint256,uint256,address,bytes)":"1b11d0ff","owner()":"8da5cb5b","pancakeCall(address,uint256,uint256,bytes)":"84800812","transferOwnership(address)":"f2fde38b","uniswapV2Call(address,uint256,uint256,bytes)":"10d1e85c","v2FlashArb(address,address,uint256,bytes)":"d4a449e8","withdraw(address,address,uint256)":"d9caed12"},"id":7}